:020000040800F2
:100000000040022079120008290800082B08000887
:1000100000000000000000000000000000000000E0
:100020000000000000000000000000002D08000893
:1000300000000000000000002F0800083108000840
:10004000C9120008C9120008C9120008C912000824
:10005000C9120008C9120008C9120008C912000814
:10006000C9120008C9120008C9120008C912000804
:10007000C9120008C9120008C9120008C9120008F4
:10008000C9120008C9120008C9120008C9120008E4
:10009000C9120008C9120008C9120008C9120008D4
:1000A000C9120008C9120008C91200084108000856
:0C00B000C9120008C9120008C91200089B
:1000BC000448054B10B5834203D0044B002B00D0F1
:1000CC00984710BD04000020040000200000000030
:1000DC0006480749091A8B10C90FC91810B54910E1
:1000EC0003D0044B002B00D0984710BD0400002017
:1000FC00040000200000000010B5074C2378002BF2
:10010C0009D1FFF7D5FF054B002B02D0044800E0C6
:10011C0000BF0123237010BD04000020000000006C
:10012C0024130008054B10B5002B03D004490548D7
:10013C0000E000BFFFF7CCFF10BDC0460000000080
:10014C000800002024130008002243088B4274D3BB
:10015C0003098B425FD3030A8B4244D3030B8B42BC
:10016C0028D3030C8B420DD3FF22090212BA030CC5
:10017C008B4202D31212090265D0030B8B4219D3A6
:10018C0000E0090AC30B8B4201D3CB03C01A5241C6
:10019C00830B8B4201D38B03C01A5241430B8B420E
:1001AC0001D34B03C01A5241030B8B4201D30B03F7
:1001BC00C01A5241C30A8B4201D3CB02C01A52411E
:1001CC00830A8B4201D38B02C01A5241430A8B42E1
:1001DC0001D34B02C01A5241030A8B4201D30B02CA
:1001EC00C01A5241CDD2C3098B4201D3CB01C01AE4
:1001FC00524183098B4201D38B01C01A52414309EE
:10020C008B4201D34B01C01A524103098B4201D3DB
:10021C000B01C01A5241C3088B4201D3CB00C01A48
:10022C00524183088B4201D38B00C01A52414308C0
:10023C008B4201D34B00C01A5241411A00D20146E5
:10024C00524110467047FFE701B5002000F006F858
:10025C0002BDC0460029F7D076E770477047C0460C
:10026C00012919D0042924D0102924D0402924D0C4
:10027C0080235B00994222D08023DB00994220D05E
:10028C0080235B0199421ED080235B02994201D0EE
:10029C00082202E0072200E0002218300B4B9B5C86
:1002AC00C01803680A49895C04228A40934303609E
:1002BC0070470122F1E70222EFE70322EDE7042267
:1002CC00EBE70522E9E70622E7E7C04648130008FA
:1002DC003C13000882B0054A516B0123194351634A
:1002EC00526B13400193019B02B070470010024007
:1002FC00F0B5CE46474680B5A3B01DAD1422002103
:10030C00280000F0DCFF15AF20220021380000F09F
:10031C00D6FF09AE30220021300000F0D0FF03AB35
:10032C00994618220021180000F0C9FF444B98464A
:10033C005B6D444A134042465365136C8022120194
:10034C00134341460B640B6C13400293029B3F23F7
:10035C002B803D4B1F933D4C2900200000F0F0FDFD
:10036C002368802213432360A368394A1340A36097
:10037C00384A136808210B4313606023159300253A
:10038C0016951795344B189319951A951B951C9522
:10039C003A000739200000F02BFE01212000FFF766
:1003AC005FFFA3682D4A1340A360A3682C4A134037
:1003BC00A360E36840229343E360E368294A134057
:1003CC00E36063687022934363606368264A13405A
:1003DC006360A36880229343A36009950A950B95EB
:1003EC003573F58180239B010D930E950F95109518
:1003FC0080239B04119312951395149531002000C2
:10040C0000F024FE43465A6B01231A4341464A63CB
:10041C004A6B13400193019B80235B000393FE3BCB
:10042C004A4653609560D56015615361A0204946DA
:10043C00C00500F000FA23B0C0BCB946B046F0BD10
:10044C0000100240FFFFBFFF1F4E0000002C0140B8
:10045C00F8BFFEFF182C0140DC0500008FFFCFFF1A
:10046C00F8FFFEFFFFBFFFFFFFFF0FFFF0B591B0DE
:10047C0008AD20220021280000F021FF02AC182238
:10048C000021200000F01BFF3A4B5A6D03218A43D8
:10049C005A651A6C8021C9010A431A641A6C0A4005
:1004AC000192019A5A6B01273A435A635B6B3B40AA
:1004BC000093009B80239B000293022603960797D0
:1004CC002100A020C00500F0B6F98023DB000293C8
:1004DC000396002604960596069607972100A02001
:1004EC00C00500F0A8F9244AC621890053581B0204
:1004FC001B0A535080231B0513600896E1235B02F3
:10050C006B60AE60EE602E610C236B61AE61EE61D0
:10051C001A4C2900200000F01FFEEFF3108287F325
:10052C001088A368DB00DB08A36082F31088EFF36C
:10053C00108287F31088A36811490B40A36082F3E3
:10054C00108823680F4A1340236063680E4A1340D7
:10055C006360A3682A229343A36023683B43236010
:10056C00064BDB699B02FBD5044BDB695B02F7D5C1
:10057C0011B0F0BD0010024000E100E00038014075
:10058C00FFFFFFF1FFFFFFDFFFB7FFFF30B595B0B7
:10059C0010AC10220021200000F091FE1822002146
:1005AC000AA800F08CFE04AD18220021280000F0EF
:1005BC0086FE424B1A6C802149030A431A641A6C5A
:1005CC000A400292029A596B0122114359635B6BE8
:1005DC0013400193019B049203230593A02029004F
:1005EC00C00500F028F98023DB051093002311933C
:1005FC0012931393324D2100280000F079F9EA6828
:10060C0080239B031343EB6001E0002909D12C4BA1
:10061C001A6880239B01110019401A42F5D0012160
:10062C00F3E7274C80239B0123600AA900230A933C
:10063C00F0224A608B60CB600B614B61200000F0B4
:10064C0071F9236901229343236123691D4A1340E5
:10065C00236163690722934363616369693293433E
:10066C00636163686C3A93436360636804329343D9
:10067C006360A268144B1A4080235B051343A3608C
:10068C00124B18681249FFF75FFD830018188000A1
:10069C000A21FFF759FD039002E0039B013B0393F2
:1006AC00039B002BF9D1064B9A6A0F218A439A625D
:1006BC005A6908490A405A6115B030BD0010024011
:1006CC0000240140FFFFFFDFE8FFFF6F0000002068
:1006DC00400D0300FFFEFFFF10B52D4A13680721E4
:1006EC008B4305390B431360294B1A6807231340BE
:1006FC00022BF9D1274A1168FE330B43136001E03A
:10070C00012B09D0234B19688022D2000B00134017
:10071C001142F5D00123F3E71E4AD0681E49084068
:10072C001E490143D16010688021490401431160C6
:10073C00D068802149050143D16001E0012809D02E
:10074C00144A116880229204080010401142F5D01E
:10075C001800F3E70F4A936811490B4093609368B4
:10076C0007218B4305390B4393600A4B9A68382356
:10077C001340102BF9D1074A93680A490B40936038
:10078C00094C200000F016FA200000F023FA10BDEE
:10079C0000200240001002408C80FF1F0208002045
:1007AC00FFF0FFFFFF8FFFFF0090D00300B583B079
:1007BC00174B196C012211431964196C0A400192F0
:1007CC00019ADA6B802149050A43DA63DB6B0B4033
:1007DC000093009B0F490B6A1B021B0AC0221206D6
:1007EC0013430B620C4A116880239B000B4313606C
:1007FC00FFF772FFFFF76EFDFFF77AFDFFF736FE8E
:10080C00FFF7C4FE00F028FD00F02EFDFCE7C0460B
:10081C000010024000ED00E000000140FEE7FEE7A2
:10082C0070477047024A1368013313607047C04623
:10083C00200000207047F0B505000800002216E0EB
:10084C0003699C46E968230063435E00F618F7438E
:10085C00B14366465E433143E9604168022925D0C5
:10086C0044682968394063430B432B6001320168AB
:10087C000B00D3403AD0012393400C001C4019428A
:10088C00F4D04368013B012BDAD88768AB682100B0
:10089C0061434E007618B34379430B43AB60C16898
:1008AC006B68A34361430B436B60C9E7FF2C0DD806
:1008BC0041698C462E6A1900614361430C01641A2C
:1008CC00A6436446614331432962C9E741698C46BA
:1008DC006E6A240A21006143614361430C01641A6E
:1008EC00A6436446614331436962B9E70020F0BD19
:1008FC0010B58368DB0711D4C368094A13404A68F2
:10090C008C682243CC6822431343C36003699B0069
:10091C009B080A6813430361002010BD0120FCE70B
:10092C00C73FFFFF10B5C368C3688368DB0729D4D2
:10093C00C3689B0202D54B68F02B16D0C368134AD0
:10094C001A400B688C682343CC6823430C692343FF
:10095C004C6923431343C360C3689B0214D54B6893
:10096C00826A1343836200200DE0C368074A1A4071
:10097C000B68CC6823430C6923434C692343134312
:10098C00C360E9E7012010BD0020FCE73CC2FEFF7C
:10099C00054B9A68120A0F231340044A9B009A587D
:1009AC001F231340D840704700100240B4130008B6
:1009BC00054B9A68120B07231340044A9B009A5864
:1009CC001F231340D84070470010024094130008B6
:1009DC0010B50E4BDA6803231340032B13D00C4ACB
:1009EC000A4CE3681B0A7F2018405043E3681B093C
:1009FC00072119400131FFF7A7FBE168490F0131CD
:100A0C00FFF7A2FB10BD034AEAE7C0460010024004
:100A1C000024F40000127A0010B50A4B9A683823AF
:100A2C001340082B0CD0102B02D1FFF7D1FF10BDB7
:100A3C00044B1A68D20A072313400348D840F6E740
:100A4C000248F4E7001002400024F40000127A007F
:100A5C0010B50400FFF7E0FF2060FFF799FF60601E
:100A6C00FFF7A6FFA06010BD10B5032805D00C2819
:100A7C002FD0302859D0002010BD434B5B6D034064
:100A8C0000040343414A934208D0414A93420FD099
:100A9C00404A934216D1FFF7BFFFEDE73A4B1A6875
:100AAC008023DB00100018401A42E5D03A48E3E7F7
:100ABC00354BDB6D0222100018401A42DCD080202E
:100ACC000002D9E7FFF7A8FFFFF762FFFFF770FFFF
:100ADC00D2E72D4B5B6D0340000403432F4A934236
:100AEC0008D02F4A93420FD02E4A934216D1FFF7CB
:100AFC0093FFC1E7244B1A688023DB0010001840D9
:100B0C001A42B9D02448B7E71F4BDB6D0222100004
:100B1C0018401A42B0D080200002ADE7FFF77CFFEE
:100B2C00FFF736FFFFF744FFA6E7174B5B6D03405B
:100B3C00000403431C4A934208D01C4A934210D031
:100B4C001B4A934218D1FFF767FF95E70E4B1A68C3
:100B5C008023DB00100018401A4200D18CE70E48AD
:100B6C008AE7094BDB6D0222100018401A4200D1B3
:100B7C0082E7802000027FE7FFF74EFFFFF708FFB8
:100B8C00FFF716FF78E7C046001002400200030092
:100B9C0003000300010003000024F40008000C0013
:100BAC000C000C0004000C00200030003000300061
:100BBC001000300010B5FA218900FFF7C5FA013892
:100BCC00034B586000229A6005321A6010BDC04673
:100BDC0010E000E0014B18607047C0460000002098
:100BEC0070B5036A0125AB430362036A44688269EA
:100BFC00194E32400E681643B446022293430A69DA
:100C0C001343AB434A681343144A904208D0144A26
:100C1C00904205D0134A904202D0134A904212D10E
:100C2C00082293434A6992001343042293438A682F
:100C3C00920013430D4A22408C6922430C4C2240F3
:100C4C00CC6964001443446062468261CA684263A2
:100C5C000362002070BDC0468CFFFEFF002C0140DB
:100C6C00004001400044014000480140FFFEFFFFEE
:100C7C00FFFDFFFF70B5036A1025AB430362036AE7
:100C8C004468826994461C4A664616400A681202F9
:100C9C001643B446202293430A6912011343AB4313
:100CAC004A6812011343154A904208D0144A9042E4
:100CBC0005D0144A904202D0134A904213D180229C
:100CCC0093434A6992011343402293438A689201E9
:100CDC0013430E4A22408C69A40022430C4C224040
:100CEC00CC69E4001443446062468261CA68826342
:100CFC000362002070BDC046FF8CFFFE002C01403B
:100D0C00004001400044014000480140FFFBFFFF50
:100D1C00FFF7FFFF70B5036A1C4D2B400362036A9B
:100D2C004268C4691A4E34400E683443194E33403D
:100D3C000E69360233432B404D682D022B43164D62
:100D4C00A84208D0154DA84205D0154DA84202D096
:100D5C00144DA84213D1144D2B404D69AD022B43B9
:100D6C00124D2B408D68AD022B43114D2A408D69DD
:100D7C002D012A430F4D2A40CD696D012A43426053
:100D8C00C461CA68C2630362002070BDFFFEFFFF2E
:100D9C008CFFFEFFFFFDFFFF002C014000400140D7
:100DAC000044014000480140FFF7FFFFFFFBFFFF3D
:100DBC00FFEFFFFFFFDFFFFF70B5036A174D2B40FE
:100DCC000362036A4268C469A446154C6646264011
:100DDC000C6824022643B446124C23400C692403AD
:100DEC0023432B404C68240323430F4CA04208D0D0
:100DFC000E4CA04205D00E4CA04202D00D4CA0428D
:100E0C0004D10D4C14408A6992012243426062461F
:100E1C00C261CA6802640362002070BDFFEFFFFF6D
:100E2C00FF8CFFFEFFDFFFFF002C01400040014064
:100E3C000044014000480140FFBFFFFF30B5036A8A
:100E4C00184C23400362036A426D174D2A400D680B
:100E5C002A43164D2B400D692D042B4323404C681F
:100E6C0024042343124CA04208D0124CA04205D0BB
:100E7C00114CA04202D0114CA04208D14468A446A7
:100E8C00084C654625408C6924022C43446042651D
:100E9C00C968826D120C12040A4382650362002039
:100EAC0030BDC046FFFFFEFF8FFFFEFFFFFFFDFFC3
:100EBC00002C01400040014000440140004801402A
:100ECC0030B5036A164C23400362036A426D154D1C
:100EDC0015400A6812022A43134D2B400D692D054B
:100EEC002B4323404C6824052343104CA04208D0CC
:100EFC000F4CA04205D00F4CA04202D00E4CA04289
:100F0C0008D14468A4460D4C654625408C69A40262
:100F1C002C4344604265CA68C2650362002030BD40
:100F2C00FFFFEFFFFF8FFFFEFFFFDFFF002C0140F5
:100F3C00004001400044014000480140FFFFFBFF1E
:100F4C000368234A904209D08022D205904205D0F2
:100F5C00204A904202D0204A904203D170229343FF
:100F6C004A6813431A4A904215D08022D205904207
:100F7C0011D0184A90420ED0174A90420BD0174A03
:100F8C00904208D0164A904205D0164A904202D0A0
:100F9C00154A904203D1154A1A40CB68134303609B
:100FAC008B68C3620B888362094B984208D00C4B48
:100FBC00984205D00B4B984202D00B4B984201D172
:100FCC000B6903634369012213434361002070479B
:100FDC00002C0140000400400008004000200040AC
:100FEC00004001400044014000480140FFFCFFFF6D
:100FFC0010B50B00110080225201934220D00CD866
:10100C00102B17D080225200934216D0012B02D104
:10101C00FFF7E6FD10BD0120FCE78022520293424F
:10102C0011D080225203934202D1FFF749FFF1E71E
:10103C000120EFE7FFF71EFEECE7FFF76BFEE9E799
:10104C00FFF7BAFEE6E7FFF7F9FEE3E70B7B8A68EA
:10105C001343194A13404A681343184A13400A6849
:10106C001343174A1340CA891343164A13400A699B
:10107C001343154A1340CA6A1343144A13404A696E
:10108C001343134A13408A691343124A904202D005
:10109C00436400207047104A13404A6A13430F4AB6
:1010AC001340CA6913430E4A13400A6A13430D4A8C
:1010BC0013408A6A1343EBE7FFFBFFFFFFF7FFFFC9
:1010CC00FFEFFFFFFFDFFFFFFFBFFFFFFFFFF0FFA3
:1010DC00FFFFFFEF002C0140FFFF0FFFFFFFFFFEA4
:1010EC00FFFFFFFDFFFFFFDF10B5040008000B2A18
:1010FC0016D80299002913D0802109028B4210D0F6
:10110C00FF231340124A9B009958FFF71DF8029BCE
:10111C005B08C0180299FFF717F80004000CE06098
:10112C0010BDFF2313400A4A9B009958FFF70CF897
:10113C004000029B5B08C0180299FFF705F8054AAE
:10114C0002400004400C072303401343E360E7E72D
:10115C0054130008F0FF000030B587B004000D00F8
:10116C000368DB0762D40368314A1A408B6809694B
:10117C000B4369690B43E9690B4313430360EB6849
:10118C0042682C490A4013434360AB6982682A4980
:10119C000A4013438360294B984210D0284B984245
:1011AC0018D0284B98421AD0274B98421CD0274B6A
:1011BC0098421ED0264B984220D001202CE00320D0
:1011CC00FFF752FC0100002925D0686800281AD1CD
:1011DC00012021E00C20FFF747FC0100F3E7302051
:1011EC00FFF742FC0100EEE703A8FFF731FC05997D
:1011FC00E9E703A8FFF72CFC0599E4E703A8FFF740
:10120C0027FC0599DFE72A68EB6900902000FFF7BF
:10121C006BFF002000E001202B68E26A0F218A435B
:10122C001B041B0C1343E36207B030BD0120FBE72A
:10123C00F369FFEFFFCFFFFFFFFCFFFF003801401A
:10124C000044004000480040004C0040005000406A
:10125C00003C014070470000024A136802210B4316
:10126C001360704710E000E0704700000D488546A1
:10127C00FFF7F0FF0C480D490D4A002302E0D4584B
:10128C00C4500433C4188C42F9D30A4A0A4C0023C4
:10129C0001E013600432A242FBD300F019F8FFF70F
:1012AC0085FAFEE700400220000000200400002028
:1012BC00FC1300080400002024000020FEE70300BB
:1012CC008218934200D1704719700133F9E700007E
:1012DC0070B500260C4C0D4D641BA410A64209D110
:1012EC00002600F019F80A4C0A4D641BA410A64203
:1012FC0005D170BDB300EB5898470136EEE7B3004B
:10130C00EB5898470136F2E7F4130008F413000881
:10131C00F8130008F4130008F8B5C046F8BC08BC74
:10132C009E467047F8B5C046F8BC08BC9E46704750
:10133C000000080000000800080000000000000089
:10134C000404043C3C00000001000000020000000A
:10135C000400000006000000080000000A00000065
:10136C000C000000100000002000000040000000F5
:10137C0080000000000100000001000000010000DE
:10138C00000100000001000000000000000000004F
:10139C00000000000000000001000000020000003E
:1013AC00030000000400000000000000000000002A
:1013BC000000000000000000000000000000000021
:1013CC00000000000000000001000000020000000E
:1013DC0003000000040000000600000007000000ED
:0813EC000800000009000000E8
:0413F40031010008BB
:0413F80005010008E3
:0413FC000024F400D5
:040000050800127964
:00000001FF
